{
  "_format": "hh-sol-artifact-1",
  "contractName": "ViralBeatToken",
  "sourceName": "contracts/ViralBeatToken.sol",
  "abi": [
    {
      "inputs": [],
      "stateMutability": "nonpayable",
      "type": "constructor"
    },
    {
      "inputs": [
        {
          "internalType": "address",
          "name": "spender",
          "type": "address"
        },
        {
          "internalType": "uint256",
          "name": "allowance",
          "type": "uint256"
        },
        {
          "internalType": "uint256",
          "name": "needed",
          "type": "uint256"
        }
      ],
      "name": "ERC20InsufficientAllowance",
      "type": "error"
    },
    {
      "inputs": [
        {
          "internalType": "address",
          "name": "sender",
          "type": "address"
        },
        {
          "internalType": "uint256",
          "name": "balance",
          "type": "uint256"
        },
        {
          "internalType": "uint256",
          "name": "needed",
          "type": "uint256"
        }
      ],
      "name": "ERC20InsufficientBalance",
      "type": "error"
    },
    {
      "inputs": [
        {
          "internalType": "address",
          "name": "approver",
          "type": "address"
        }
      ],
      "name": "ERC20InvalidApprover",
      "type": "error"
    },
    {
      "inputs": [
        {
          "internalType": "address",
          "name": "receiver",
          "type": "address"
        }
      ],
      "name": "ERC20InvalidReceiver",
      "type": "error"
    },
    {
      "inputs": [
        {
          "internalType": "address",
          "name": "sender",
          "type": "address"
        }
      ],
      "name": "ERC20InvalidSender",
      "type": "error"
    },
    {
      "inputs": [
        {
          "internalType": "address",
          "name": "spender",
          "type": "address"
        }
      ],
      "name": "ERC20InvalidSpender",
      "type": "error"
    },
    {
      "inputs": [],
      "name": "EnforcedPause",
      "type": "error"
    },
    {
      "inputs": [],
      "name": "ExpectedPause",
      "type": "error"
    },
    {
      "inputs": [
        {
          "internalType": "address",
          "name": "owner",
          "type": "address"
        }
      ],
      "name": "OwnableInvalidOwner",
      "type": "error"
    },
    {
      "inputs": [
        {
          "internalType": "address",
          "name": "account",
          "type": "address"
        }
      ],
      "name": "OwnableUnauthorizedAccount",
      "type": "error"
    },
    {
      "anonymous": false,
      "inputs": [
        {
          "indexed": true,
          "internalType": "address",
          "name": "owner",
          "type": "address"
        },
        {
          "indexed": true,
          "internalType": "address",
          "name": "spender",
          "type": "address"
        },
        {
          "indexed": false,
          "internalType": "uint256",
          "name": "value",
          "type": "uint256"
        }
      ],
      "name": "Approval",
      "type": "event"
    },
    {
      "anonymous": false,
      "inputs": [
        {
          "indexed": true,
          "internalType": "address",
          "name": "by",
          "type": "address"
        },
        {
          "indexed": false,
          "internalType": "string",
          "name": "reason",
          "type": "string"
        }
      ],
      "name": "EmergencyPause",
      "type": "event"
    },
    {
      "anonymous": false,
      "inputs": [
        {
          "indexed": true,
          "internalType": "address",
          "name": "by",
          "type": "address"
        }
      ],
      "name": "EmergencyUnpause",
      "type": "event"
    },
    {
      "anonymous": false,
      "inputs": [
        {
          "indexed": true,
          "internalType": "address",
          "name": "previousOwner",
          "type": "address"
        },
        {
          "indexed": true,
          "internalType": "address",
          "name": "newOwner",
          "type": "address"
        }
      ],
      "name": "OwnershipTransferred",
      "type": "event"
    },
    {
      "anonymous": false,
      "inputs": [
        {
          "indexed": false,
          "internalType": "address",
          "name": "account",
          "type": "address"
        }
      ],
      "name": "Paused",
      "type": "event"
    },
    {
      "anonymous": false,
      "inputs": [
        {
          "indexed": true,
          "internalType": "address",
          "name": "user",
          "type": "address"
        },
        {
          "indexed": false,
          "internalType": "uint256",
          "name": "amount",
          "type": "uint256"
        },
        {
          "indexed": false,
          "internalType": "bytes32",
          "name": "migrationId",
          "type": "bytes32"
        }
      ],
      "name": "TokensMigrated",
      "type": "event"
    },
    {
      "anonymous": false,
      "inputs": [
        {
          "indexed": true,
          "internalType": "address",
          "name": "from",
          "type": "address"
        },
        {
          "indexed": true,
          "internalType": "address",
          "name": "to",
          "type": "address"
        },
        {
          "indexed": false,
          "internalType": "uint256",
          "name": "value",
          "type": "uint256"
        }
      ],
      "name": "Transfer",
      "type": "event"
    },
    {
      "anonymous": false,
      "inputs": [
        {
          "indexed": false,
          "internalType": "address",
          "name": "account",
          "type": "address"
        }
      ],
      "name": "Unpaused",
      "type": "event"
    },
    {
      "inputs": [],
      "name": "MAX_SUPPLY",
      "outputs": [
        {
          "internalType": "uint256",
          "name": "",
          "type": "uint256"
        }
      ],
      "stateMutability": "view",
      "type": "function"
    },
    {
      "inputs": [
        {
          "internalType": "address",
          "name": "owner",
          "type": "address"
        },
        {
          "internalType": "address",
          "name": "spender",
          "type": "address"
        }
      ],
      "name": "allowance",
      "outputs": [
        {
          "internalType": "uint256",
          "name": "",
          "type": "uint256"
        }
      ],
      "stateMutability": "view",
      "type": "function"
    },
    {
      "inputs": [
        {
          "internalType": "address",
          "name": "spender",
          "type": "address"
        },
        {
          "internalType": "uint256",
          "name": "value",
          "type": "uint256"
        }
      ],
      "name": "approve",
      "outputs": [
        {
          "internalType": "bool",
          "name": "",
          "type": "bool"
        }
      ],
      "stateMutability": "nonpayable",
      "type": "function"
    },
    {
      "inputs": [
        {
          "internalType": "address",
          "name": "account",
          "type": "address"
        }
      ],
      "name": "balanceOf",
      "outputs": [
        {
          "internalType": "uint256",
          "name": "",
          "type": "uint256"
        }
      ],
      "stateMutability": "view",
      "type": "function"
    },
    {
      "inputs": [
        {
          "internalType": "uint256",
          "name": "value",
          "type": "uint256"
        }
      ],
      "name": "burn",
      "outputs": [],
      "stateMutability": "nonpayable",
      "type": "function"
    },
    {
      "inputs": [
        {
          "internalType": "address",
          "name": "account",
          "type": "address"
        },
        {
          "internalType": "uint256",
          "name": "value",
          "type": "uint256"
        }
      ],
      "name": "burnFrom",
      "outputs": [],
      "stateMutability": "nonpayable",
      "type": "function"
    },
    {
      "inputs": [],
      "name": "decimals",
      "outputs": [
        {
          "internalType": "uint8",
          "name": "",
          "type": "uint8"
        }
      ],
      "stateMutability": "view",
      "type": "function"
    },
    {
      "inputs": [
        {
          "internalType": "bytes32",
          "name": "migrationId",
          "type": "bytes32"
        }
      ],
      "name": "isMigrationProcessed",
      "outputs": [
        {
          "internalType": "bool",
          "name": "",
          "type": "bool"
        }
      ],
      "stateMutability": "view",
      "type": "function"
    },
    {
      "inputs": [
        {
          "internalType": "address",
          "name": "",
          "type": "address"
        }
      ],
      "name": "migratedAmount",
      "outputs": [
        {
          "internalType": "uint256",
          "name": "",
          "type": "uint256"
        }
      ],
      "stateMutability": "view",
      "type": "function"
    },
    {
      "inputs": [
        {
          "internalType": "address",
          "name": "to",
          "type": "address"
        },
        {
          "internalType": "uint256",
          "name": "amount",
          "type": "uint256"
        },
        {
          "internalType": "bytes32",
          "name": "migrationId",
          "type": "bytes32"
        }
      ],
      "name": "mintForMigration",
      "outputs": [],
      "stateMutability": "nonpayable",
      "type": "function"
    },
    {
      "inputs": [],
      "name": "name",
      "outputs": [
        {
          "internalType": "string",
          "name": "",
          "type": "string"
        }
      ],
      "stateMutability": "view",
      "type": "function"
    },
    {
      "inputs": [],
      "name": "owner",
      "outputs": [
        {
          "internalType": "address",
          "name": "",
          "type": "address"
        }
      ],
      "stateMutability": "view",
      "type": "function"
    },
    {
      "inputs": [
        {
          "internalType": "string",
          "name": "reason",
          "type": "string"
        }
      ],
      "name": "pause",
      "outputs": [],
      "stateMutability": "nonpayable",
      "type": "function"
    },
    {
      "inputs": [],
      "name": "paused",
      "outputs": [
        {
          "internalType": "bool",
          "name": "",
          "type": "bool"
        }
      ],
      "stateMutability": "view",
      "type": "function"
    },
    {
      "inputs": [
        {
          "internalType": "bytes32",
          "name": "",
          "type": "bytes32"
        }
      ],
      "name": "processedMigrations",
      "outputs": [
        {
          "internalType": "bool",
          "name": "",
          "type": "bool"
        }
      ],
      "stateMutability": "view",
      "type": "function"
    },
    {
      "inputs": [],
      "name": "remainingSupply",
      "outputs": [
        {
          "internalType": "uint256",
          "name": "",
          "type": "uint256"
        }
      ],
      "stateMutability": "view",
      "type": "function"
    },
    {
      "inputs": [],
      "name": "renounceOwnership",
      "outputs": [],
      "stateMutability": "nonpayable",
      "type": "function"
    },
    {
      "inputs": [],
      "name": "symbol",
      "outputs": [
        {
          "internalType": "string",
          "name": "",
          "type": "string"
        }
      ],
      "stateMutability": "view",
      "type": "function"
    },
    {
      "inputs": [],
      "name": "totalMinted",
      "outputs": [
        {
          "internalType": "uint256",
          "name": "",
          "type": "uint256"
        }
      ],
      "stateMutability": "view",
      "type": "function"
    },
    {
      "inputs": [],
      "name": "totalSupply",
      "outputs": [
        {
          "internalType": "uint256",
          "name": "",
          "type": "uint256"
        }
      ],
      "stateMutability": "view",
      "type": "function"
    },
    {
      "inputs": [
        {
          "internalType": "address",
          "name": "to",
          "type": "address"
        },
        {
          "internalType": "uint256",
          "name": "value",
          "type": "uint256"
        }
      ],
      "name": "transfer",
      "outputs": [
        {
          "internalType": "bool",
          "name": "",
          "type": "bool"
        }
      ],
      "stateMutability": "nonpayable",
      "type": "function"
    },
    {
      "inputs": [
        {
          "internalType": "address",
          "name": "from",
          "type": "address"
        },
        {
          "internalType": "address",
          "name": "to",
          "type": "address"
        },
        {
          "internalType": "uint256",
          "name": "value",
          "type": "uint256"
        }
      ],
      "name": "transferFrom",
      "outputs": [
        {
          "internalType": "bool",
          "name": "",
          "type": "bool"
        }
      ],
      "stateMutability": "nonpayable",
      "type": "function"
    },
    {
      "inputs": [
        {
          "internalType": "address",
          "name": "newOwner",
          "type": "address"
        }
      ],
      "name": "transferOwnership",
      "outputs": [],
      "stateMutability": "nonpayable",
      "type": "function"
    },
    {
      "inputs": [],
      "name": "unpause",
      "outputs": [],
      "stateMutability": "nonpayable",
      "type": "function"
    }
  ],
  "bytecode": "0x60806040523480156200001157600080fd5b50336040518060400160405280601081526020016f2b34b930b6102132b0ba102a37b5b2b760811b8152506040518060400160405280600381526020016215909560ea1b815250816003908162000069919062000397565b50600462000078828262000397565b5050506001600160a01b038116620000ab57604051631e4fbdf760e01b8152600060048201526024015b60405180910390fd5b620000b681620000d8565b506a084595161401484a000000620000cf338262000132565b6006556200048b565b600580546001600160a01b03838116610100818102610100600160a81b031985161790945560405193909204169182907f8be0079c531659141344cd1fd0a4f28419497f9722a3daafe3b4186f6b6457e090600090a35050565b6001600160a01b0382166200015e5760405163ec442f0560e01b815260006004820152602401620000a2565b6200016c6000838362000170565b5050565b6200017d83838362000182565b505050565b6200018c62000199565b6200017d838383620001c0565b60055460ff1615620001be5760405163d93c066560e01b815260040160405180910390fd5b565b6001600160a01b038316620001ef578060026000828254620001e3919062000463565b90915550620002639050565b6001600160a01b03831660009081526020819052604090205481811015620002445760405163391434e360e21b81526001600160a01b03851660048201526024810182905260448101839052606401620000a2565b6001600160a01b03841660009081526020819052604090209082900390555b6001600160a01b0382166200028157600280548290039055620002a0565b6001600160a01b03821660009081526020819052604090208054820190555b816001600160a01b0316836001600160a01b03167fddf252ad1be2c89b69c2b068fc378daa952ba7f163c4a11628f55a4df523b3ef83604051620002e691815260200190565b60405180910390a3505050565b634e487b7160e01b600052604160045260246000fd5b600181811c908216806200031e57607f821691505b6020821081036200033f57634e487b7160e01b600052602260045260246000fd5b50919050565b601f8211156200017d57600081815260208120601f850160051c810160208610156200036e5750805b601f850160051c820191505b818110156200038f578281556001016200037a565b505050505050565b81516001600160401b03811115620003b357620003b3620002f3565b620003cb81620003c4845462000309565b8462000345565b602080601f831160018114620004035760008415620003ea5750858301515b600019600386901b1c1916600185901b1785556200038f565b600085815260208120601f198616915b82811015620004345788860151825594840194600190910190840162000413565b5085821015620004535787850151600019600388901b60f8161c191681555b5050505050600190811b01905550565b808201808211156200048557634e487b7160e01b600052601160045260246000fd5b92915050565b610f76806200049b6000396000f3fe608060405234801561001057600080fd5b50600436106101585760003560e01c80636b780567116100c357806395d89b411161007c57806395d89b4114610305578063a2309ff81461030d578063a9059cbb14610316578063da0239a614610329578063dd62ed3e14610331578063f2fde38b1461036a57600080fd5b80636b780567146102625780636da663551461028557806370a0823114610298578063715018a6146102c157806379cc6790146102c95780638da5cb5b146102dc57600080fd5b806332cb6b0c1161011557806332cb6b0c146101f25780633f4ba83a1461020457806342966c681461020e5780634fe7d16d146102215780635c975abb14610234578063651c13181461023f57600080fd5b806306fdde031461015d578063095ea7b31461017b57806318160ddd1461019e57806323b872dd146101b0578063283c184a146101c3578063313ce567146101e3575b600080fd5b61016561037d565b6040516101729190610c92565b60405180910390f35b61018e610189366004610cfc565b61040f565b6040519015158152602001610172565b6002545b604051908152602001610172565b61018e6101be366004610d26565b610429565b6101a26101d1366004610d62565b60076020526000908152604090205481565b60405160128152602001610172565b6101a26a52b7d2dcc80cd2e400000081565b61020c61044d565b005b61020c61021c366004610d84565b61048a565b61020c61022f366004610d9d565b610497565b60055460ff1661018e565b61018e61024d366004610d84565b60009081526008602052604090205460ff1690565b61018e610270366004610d84565b60086020526000908152604090205460ff1681565b61020c610293366004610de6565b6106c2565b6101a26102a6366004610d62565b6001600160a01b031660009081526020819052604090205490565b61020c610716565b61020c6102d7366004610cfc565b61072a565b60055461010090046001600160a01b03166040516001600160a01b039091168152602001610172565b610165610743565b6101a260065481565b61018e610324366004610cfc565b610752565b6101a2610760565b6101a261033f366004610e97565b6001600160a01b03918216600090815260016020908152604080832093909416825291909152205490565b61020c610378366004610d62565b610780565b60606003805461038c90610eca565b80601f01602080910402602001604051908101604052809291908181526020018280546103b890610eca565b80156104055780601f106103da57610100808354040283529160200191610405565b820191906000526020600020905b8154815290600101906020018083116103e857829003601f168201915b5050505050905090565b60003361041d8185856107bb565b60019150505b92915050565b6000336104378582856107cd565b61044285858561084c565b506001949350505050565b6104556108ab565b61045d6108de565b60405133907f306ca22c455fe433ebbf0542bbf947ea6a725495f9e1043db2a47e3c5794038590600090a2565b6104943382610930565b50565b61049f6108ab565b6001600160a01b0383166104fa5760405162461bcd60e51b815260206004820152601b60248201527f43616e6e6f74206d696e7420746f207a65726f2061646472657373000000000060448201526064015b60405180910390fd5b6000821161054a5760405162461bcd60e51b815260206004820181905260248201527f416d6f756e74206d7573742062652067726561746572207468616e207a65726f60448201526064016104f1565b60008181526008602052604090205460ff16156105a95760405162461bcd60e51b815260206004820152601b60248201527f4d6967726174696f6e20616c72656164792070726f636573736564000000000060448201526064016104f1565b6a52b7d2dcc80cd2e4000000826006546105c39190610f1a565b11156106115760405162461bcd60e51b815260206004820152601760248201527f576f756c6420657863656564206d617820737570706c7900000000000000000060448201526064016104f1565b6000818152600860209081526040808320805460ff191660011790556001600160a01b0386168352600790915281208054849290610650908490610f1a565b9250508190555081600660008282546106699190610f1a565b9091555061067990508383610966565b60408051838152602081018390526001600160a01b038516917f18c6d0fbb4eac5306161a08d5a3d63bc2074b07cb9ba04318df3951ddcf75a57910160405180910390a2505050565b6106ca6108ab565b6106d261099c565b336001600160a01b03167fc50068396f19981cb0435611d2c97dde7b6882fdc3185a9fb8080fa756b3974d8260405161070b9190610c92565b60405180910390a250565b61071e6108ab565b61072860006109d9565b565b6107358233836107cd565b61073f8282610930565b5050565b60606004805461038c90610eca565b60003361041d81858561084c565b60006006546a52b7d2dcc80cd2e400000061077b9190610f2d565b905090565b6107886108ab565b6001600160a01b0381166107b257604051631e4fbdf760e01b8152600060048201526024016104f1565b610494816109d9565b6107c88383836001610a33565b505050565b6001600160a01b03838116600090815260016020908152604080832093861683529290522054600019811015610846578181101561083757604051637dc7a0d960e11b81526001600160a01b038416600482015260248101829052604481018390526064016104f1565b61084684848484036000610a33565b50505050565b6001600160a01b03831661087657604051634b637e8f60e11b8152600060048201526024016104f1565b6001600160a01b0382166108a05760405163ec442f0560e01b8152600060048201526024016104f1565b6107c8838383610b08565b6005546001600160a01b036101009091041633146107285760405163118cdaa760e01b81523360048201526024016104f1565b6108e6610b13565b6005805460ff191690557f5db9ee0a495bf2e6ff9c91a7834c1ba4fdd244a5e8aa4e537bd38aeae4b073aa335b6040516001600160a01b03909116815260200160405180910390a1565b6001600160a01b03821661095a57604051634b637e8f60e11b8152600060048201526024016104f1565b61073f82600083610b08565b6001600160a01b0382166109905760405163ec442f0560e01b8152600060048201526024016104f1565b61073f60008383610b08565b6109a4610b36565b6005805460ff191660011790557f62e78cea01bee320cd4e420270b5ea74000d11b0c9f74754ebdbfc544b05a2586109133390565b600580546001600160a01b03838116610100818102610100600160a81b031985161790945560405193909204169182907f8be0079c531659141344cd1fd0a4f28419497f9722a3daafe3b4186f6b6457e090600090a35050565b6001600160a01b038416610a5d5760405163e602df0560e01b8152600060048201526024016104f1565b6001600160a01b038316610a8757604051634a1406b160e11b8152600060048201526024016104f1565b6001600160a01b038085166000908152600160209081526040808320938716835292905220829055801561084657826001600160a01b0316846001600160a01b03167f8c5be1e5ebec7d5bd14f71427d1e84f3dd0314c0f7b2291e5b200ac8c7c3b92584604051610afa91815260200190565b60405180910390a350505050565b6107c8838383610b5a565b60055460ff1661072857604051638dfc202b60e01b815260040160405180910390fd5b60055460ff16156107285760405163d93c066560e01b815260040160405180910390fd5b610b62610b36565b6107c88383836001600160a01b038316610b93578060026000828254610b889190610f1a565b90915550610c059050565b6001600160a01b03831660009081526020819052604090205481811015610be65760405163391434e360e21b81526001600160a01b038516600482015260248101829052604481018390526064016104f1565b6001600160a01b03841660009081526020819052604090209082900390555b6001600160a01b038216610c2157600280548290039055610c40565b6001600160a01b03821660009081526020819052604090208054820190555b816001600160a01b0316836001600160a01b03167fddf252ad1be2c89b69c2b068fc378daa952ba7f163c4a11628f55a4df523b3ef83604051610c8591815260200190565b60405180910390a3505050565b600060208083528351808285015260005b81811015610cbf57858101830151858201604001528201610ca3565b506000604082860101526040601f19601f8301168501019250505092915050565b80356001600160a01b0381168114610cf757600080fd5b919050565b60008060408385031215610d0f57600080fd5b610d1883610ce0565b946020939093013593505050565b600080600060608486031215610d3b57600080fd5b610d4484610ce0565b9250610d5260208501610ce0565b9150604084013590509250925092565b600060208284031215610d7457600080fd5b610d7d82610ce0565b9392505050565b600060208284031215610d9657600080fd5b5035919050565b600080600060608486031215610db257600080fd5b610dbb84610ce0565b95602085013595506040909401359392505050565b634e487b7160e01b600052604160045260246000fd5b600060208284031215610df857600080fd5b813567ffffffffffffffff80821115610e1057600080fd5b818401915084601f830112610e2457600080fd5b813581811115610e3657610e36610dd0565b604051601f8201601f19908116603f01168101908382118183101715610e5e57610e5e610dd0565b81604052828152876020848701011115610e7757600080fd5b826020860160208301376000928101602001929092525095945050505050565b60008060408385031215610eaa57600080fd5b610eb383610ce0565b9150610ec160208401610ce0565b90509250929050565b600181811c90821680610ede57607f821691505b602082108103610efe57634e487b7160e01b600052602260045260246000fd5b50919050565b634e487b7160e01b600052601160045260246000fd5b8082018082111561042357610423610f04565b8181038181111561042357610423610f0456fea264697066735822122084a84277364bbbd7fe3842590837b89ef336b0b65ee6e984e019de3dc63bef0b64736f6c63430008140033",
  "linkReferences": {},
  "deployedLinkReferences": {}
}